:100000000C942A000C943F000C943F000C943F0089
:100010000C943F000C943F000C943F000C943F0064
:100020000C943F000C943F000C943F000C943F0054
:100030000C943F000C943F000C943F000C943F0044
:100040000C943F000C943F000C943F000C943F0034
:100050000C943F0011241FBECFE5D4E0DEBFCDBF1E
:1000600010E0A0E6B0E0E4EBF1E002C005900D92F4
:10007000A036B107D9F70E9441000C94D8000C9427
:1000800000008FEF81BB8ABB92B382BB8BB38BBB6B
:10009000C1E082B38C2782BB2FEF88E09DE3215023
:1000A00080409040E1F700C000000E9459008BBBE7
:1000B000F0CFCF930E94770086E30E9499008823B7
:1000C00089F083E00E94C40081110CC087E30E9484
:1000D000BB00811107C00E94D100C82F0E94BE0042
:1000E0008C2F03C00E94BE0080E0CF91089511B80C
:1000F0008CE080B9089594EA96BF06B607FEFDCF5E
:1001000091B1987F983011F0903179F483B984E8F7
:1001100086BF06B607FEFDCF91B1987F983139F0C2
:1001200081E0903429F480E0089581E0089580E032
:10013000089524EA34E844E926BF06B607FEFDCF59
:1001400091B1987F983011F09031B1F783B936BFF3
:1001500006B607FEFDCF91B1987F903211F0983529
:1001600029F446BF06B604FCFDCFE6CF983111F066
:1001700081E0089508950E947B00089584E986BF78
:1001800006B604FCFDCF089583B984E886BF06B6A1
:1001900007FEFDCF91B1987F81E0983209F480E0AD
:1001A000089584E886BF06B607FEFDCF83B10895A3
:0401B000F894FFCFF1
:00000001FF
