:100000000C9434000C9451000C9451000C94510049
:100010000C9451000C9451000C9451000C9451001C
:100020000C9451000C9451000C9451000C9451000C
:100030000C9451000C9451000C9451000C945100FC
:100040000C9451000C9451000C9451000C945100EC
:100050000C9451000C9451000C9451000C945100DC
:100060000C9451000C94510011241FBECFEFD8E026
:10007000DEBFCDBF11E0A0E0B1E0E4ECF4E002C0EF
:1000800005900D92AA30B107D9F721E0AAE0B1E0BE
:1000900001C01D92AD30B207E1F70E9453000C94ED
:1000A00060020C940000CF93DF9300D000D0CDB756
:1000B000DEB7CE0101960E948101CE0101960E9419
:1000C0008201CE0101960E949D01FBCFDC016623D7
:1000D00091F084E88093BC00ECEBF0E090819923F0
:1000E000ECF79091B900987F983511F085E08C93EA
:1000F0008091BB00089584EC8093BC00ECEBF0E0B1
:1001000090819923ECF79091B900987F903511F088
:1001100085E08C938091BB000895DC0194EA909374
:10012000BC00ECEBF0E090819923ECF79091B900E2
:10013000987F983011F081E08C930895DC016093F2
:10014000BB0094E89093BC00ECEBF0E09081992325
:10015000ECF72091B900287F30E050E024173507F4
:1001600011F082E08C930895DC016093BB0094E869
:100170009093BC00ECEBF0E090819923ECF7209198
:10018000B900287F30E050E02417350711F083E0F4
:100190008C930895FF920F931F93CF93DF93EC01FD
:1001A000162FF42E022F8FE99FE00197F1F700C080
:1001B0000000CE010E948D00612F660F42E0CE014B
:1001C0000E949E0048E26F2DCE010E94B40048E2DA
:1001D000602FCE010E94B40084E98093BC00DF91BF
:1001E000CF911F910F91FF900895EF92FF920F937F
:1001F0001F93CF93DF93EC01162F042F0E948D00E5
:10020000612F660F42E0CE010E949E0048E2602FFF
:10021000CE010E94B4000F2EFCEBEF2EF12CF02D3E
:1002200004E9F70100838FE99FE00197F1F700C02F
:100230000000CE010E948D00612F660F616044E0D6
:10024000CE010E949E0061E0CE010E946600809374
:100250000A01F70100838091BB00DF91CF911F91CC
:100260000F91FF90EF900895E9EBF0E080818160BD
:10027000808388E48093B800089584B1886284B94B
:10028000249881E58CBD08956EBD0DB407FEFDCFA9
:1002900008951092C5008FEF8093C40088E1809389
:1002A000C1008EE08093C2000895E0ECF0E0808110
:1002B00085FFFDCF6093C6000895559A83EA84BDFB
:1002C00089E085BD81E087BD18BC089508951F931E
:1002D000CF93DF93EC01162F579A5F980E943D0150
:1002E000612FCE010E9444015F9ADF91CF911F914F
:1002F000089561E070E00E94490108950E9455014F
:1003000008950895CF93DF93EC018FEF84B987B9F7
:100310008AB9F8947894CE010E943401CE010196F6
:100320000E945D01CE0102960E946601CE010396F5
:100330000E947901DF91CF910895CF93DF93EC0173
:1003400021E841E161E20E94CA008FE99FE0019744
:10035000F1F700C0000041E161E2CE010E94F5002A
:100360008FE39CE90197F1F700C00000E0910B01D9
:10037000F0910C01E050FF4F6081CE0102960E9487
:10038000670180910B0190910C01019688309105D5
:100390002CF490930C0180930B0104C010920C017B
:1003A00010920B018FE39CE90197F1F700C0000068
:1003B000239661E070E0CE010E947E018FE39CE90C
:1003C0000197F1F700C0000060E170E0CE010E94EB
:1003D0007E018FE39CE90197F1F700C0000061E125
:1003E00070E0CE010E947E018FE39CE90197F1F756
:1003F00000C0000068E170E0CE010E947E018FE342
:100400009CE90197F1F700C0000061E870E0CE01BF
:100410000E947E018FE39CE90197F1F700C0000084
:1004200062E270E0CE010E947E018FE39CE90197B9
:10043000F1F700C0000063E370E0CE010E947E018E
:100440008FE39CE90197F1F700C0000064E470E0DD
:10045000CE010E947E018FE39CE90197F1F700C075
:10046000000065E570E0CE010E947E018FE39CE90B
:100470000197F1F700C0000066E670E0CE010E942F
:100480007E018FE39CE90197F1F700C0000067E768
:1004900070E0CE010E947E018FE39CE90197F1F7A5
:1004A00000C000006FEF70E0CE010E947E018FE37C
:1004B0009CE90197F1F700C00000DF91CF9108950A
:0404C000F894FFCFDE
:0A04C400616263646566676800000A
:00000001FF
