:100000000C942A000C9434000C9434000C943400AA
:100010000C9434000C9434000C9434000C94340090
:100020000C9434000C9434000C9434000C94340080
:100030000C9434000C9434000C9434000C94340070
:100040000C9434000C9434000C9434000C94340060
:100050000C94340011241FBECFE5D4E0DEBFCDBF29
:100060000E9436000C941C010C940000CF93DF9387
:100070001F92CDB7DEB78FEF81BB8ABB92B382BB35
:100080008BB38BBBCE0101960E945B0011E002E0B6
:1000900082B3812782BBCE0101960E945E008BBB9A
:1000A0006FEFCE0101960E946300882389F382B32B
:1000B000802782BBEDCF0E946900089563E08BE149
:1000C0000E94EE000895462F64E58BE10E94C70070
:1000D000089511B88CE080B9089594EA96BF06B6E9
:1000E00007FEFDCF91B1987F983011F0903179F4EF
:1000F00083B984E886BF06B607FEFDCF91B1987F2D
:10010000983139F081E0903429F480E0089581E05D
:10011000089580E0089524EA34E844E926BF06B64D
:1001200007FEFDCF91B1987F983011F09031B1F773
:1001300083B936BF06B607FEFDCF91B1987F9032E6
:1001400011F0983529F446BF06B604FCFDCFE6CF82
:10015000983111F081E00895089584E986BF06B6CC
:1001600004FCFDCF089583B984E886BF06B607FE78
:10017000FDCF91B1987F81E0983209F480E0089535
:1001800084E886BF06B607FEFDCF83B108951F93AE
:10019000CF93DF93D62F142FC82FCC0F8C2F0E9414
:1001A0006D00882319F00E94AD0011C08C2F0E94B1
:1001B0008B00882361F08D2F0E94B300811107C04E
:1001C000812F0E94B3000E94AD0081E003C00E9415
:1001D000AD0080E0DF91CF911F9108951F93CF93E1
:1001E000DF93D82F162FC82FCC0F8C2F0E946D00B5
:1001F000882319F00E94AD0018C08C2F0E948B003C
:10020000882399F0812F0E94B30081110EC08D2F99
:10021000880F81600E946D00811107C00E94C0009C
:10022000C82F0E94AD008C2F03C00E94AD0080E05B
:0C023000DF91CF911F910895F894FFCF4B
:00000001FF
