:100000000C942A000C9434000C9434000C943400AA
:100010000C9434000C9434000C9434000C94340090
:100020000C9434000C9434000C9434000C94340080
:100030000C9434000C9434000C9434000C94340070
:100040000C9434000C9434000C9434000C94340060
:100050000C94340011241FBECFE5D4E0DEBFCDBF29
:100060000E9436000C94D6000C940000CF93DF93CE
:100070001F92CDB7DEB78FEF81BB8ABB92B382BB35
:100080008BB38BBBCE0101960E94560011E082B368
:10009000812782BB8FEC97E00197F1F700C0000049
:1000A000CE0101960E9459008BBBF1CF0E947500D2
:1000B0000895CF9386E30E949700882389F083E018
:1000C0000E94C20081110CC087E30E94B900811117
:1000D00007C00E94CF00C82F0E94BC008C2F03C015
:1000E0000E94BC0080E0CF91089511B88CE080B9E7
:1000F000089594EA96BF06B607FEFDCF91B1987FAA
:10010000983011F0903179F483B984E886BF06B64F
:1001100007FEFDCF91B1987F983139F081E090349E
:1001200029F480E0089581E0089580E0089524EAAC
:1001300034E844E926BF06B607FEFDCF91B1987FAB
:10014000983011F09031B1F783B936BF06B607FE8B
:10015000FDCF91B1987F903211F0983529F446BFC8
:1001600006B604FCFDCFE6CF983111F081E008958A
:1001700008950E947900089584E986BF06B604FCBC
:10018000FDCF089583B984E886BF06B607FEFDCF8C
:1001900091B1987F81E0983209F480E0089584E875
:1001A00086BF06B607FEFDCF83B10895F894FFCF52
:00000001FF
