S013000043616D536F6674776172652E73726563B5
S11300000C942A000C9434000C9434000C943400A6
S11300100C9434000C9434000C9434000C9434008C
S11300200C9434000C9434000C9434000C9434007C
S11300300C9434000C9434000C9434000C9434006C
S11300400C9434000C9434000C9434000C9434005C
S11300500C94340011241FBECFE5D4E0DEBFCDBF25
S11300600E9436000C941B010C940000CF93DF9384
S11300701F92CDB7DEB78FEF81BB8ABB87BB92B32C
S113008082BB9BB39BBB98B388BBCE0101960E94F5
S11300905A0012E0CE0101960E945D008BBB6FEF07
S11300A0CE0101960E9462008823A1F382B38127C6
S11300B082BBF0CF0E946800089563E08BE10E9448
S11300C0ED000895462F64E58BE10E94C600089573
S11300D011B88CE080B9089594EA96BF06B607FE7D
S11300E0FDCF91B1987F983011F0903179F483B9B4
S11300F084E886BF06B607FEFDCF91B1987F98319C
S113010039F081E0903429F480E0089581E0089585
S113011080E0089524EA34E844E926BF06B607FEE1
S1130120FDCF91B1987F983011F09031B1F783B938
S113013036BF06B607FEFDCF91B1987F903211F01D
S1130140983529F446BF06B604FCFDCFE6CF9831B6
S113015011F081E00895089584E986BF06B604FC91
S1130160FDCF089583B984E886BF06B607FEFDCFA8
S113017091B1987F81E0983209F480E0089584E891
S113018086BF06B607FEFDCF83B108951F93CF93B4
S1130190DF93D62F142FC82FCC0F8C2F0E946C0006
S11301A0882319F00E94AC0011C08C2F0E948A0091
S11301B0882361F08D2F0E94B200811107C0812F26
S11301C00E94B2000E94AC0081E003C00E94AC0017
S11301D080E0DF91CF911F9108951F93CF93DF9318
S11301E0D82F162FC82FCC0F8C2F0E946C00882379
S11301F019F00E94AC0018C08C2F0E948A0088233A
S113020099F0812F0E94B20081110EC08D2F880FAA
S113021081600E946C00811107C00E94BF00C82F3A
S11302200E94AC008C2F03C00E94AC0080E0DF91E0
S10D0230CF911F910895F894FFCFB9
S9030000FC
